:020000040800F2
:10000000A8040020251D00082D1D00082F1D000834
:10001000311D0008331D0008351D000800000000D8
:10002000000000000000000000000000371D000874
:10003000391D0008000000003B1D00083D1D0008A0
:100040003F1D00083F1D00083F1D00083F1D000820
:100050003F1D00083F1D00083F1D00083F1D000810
:100060003F1D00083F1D00083F1D00083F1D000800
:100070003F1D00083F1D00083F1D00083F1D0008F0
:100080003F1D00083F1D00083F1D00083F1D0008E0
:100090003F1D00083F1D00083F1D00083F1D0008D0
:1000A0003F1D00083F1D00083F1D00083F1D0008C0
:1000B0003F1D00083F1D00083F1D00083F1D0008B0
:1000C0003F1D00083F1D00083F1D00083F1D0008A0
:1000D0003F1D00081B1A0008431A00086B1A00088D
:1000E0003F1D00083F1D00083F1D0008DFF80CD031
:1000F00001F0A6FF0048004701010008A804002005
:1001000008B501F0A7FA10225102022001F056F9B9
:100110004FF4007338220421012001F0FFFC00F0AD
:1001200057F901F0F9FD012002231A464FF4E1319D
:10013000009001F01CFB0020094908600EE009480E
:1001400000F09CF90849074800F012F807490648F2
:1001500000F03CF80B21054800F05EF8EFE70000E6
:10016000B4012242480000206400002084000020E6
:1001700070B502460023032025E0145C04F08004DF
:10018000802C10D1145C2504441C145D45EA042421
:10019000851C555D2C4344F07F461C465D1CEBB22C
:1001A00041F824600DE0145C2504441C145D45EA0C
:1001B0000424851C555D25431C465E1CF3B241F8A2
:1001C0002450C41CE0B21B28D7DB70BD2DE9F05FC2
:1001D00007460D46DFF89080002419E057F8240008
:1001E00001F0D4FE8346414601F09EFE82461F493F
:1001F00001F09AFE814601F0D2FE06B2C6F3072056
:1002000005F81400012101EB44016E54601CC4B2D6
:10021000082CE3DBBDE8F09F2DE9F04105460F46D1
:100220000126002413E007EA0600B0420BD115F8BE
:100230001410012001F0B9FB012000EB4400295CFF
:10024000012001F0B2FB7006060E601CC4B2082C3F
:10025000E9DB0D21012001F0A8FB0A21012001F0BA
:10026000A4FBBDE8F08100000100963900002041A8
:1002700070B50446002500208D490860642001F017
:1002800008FA21468B4801F021FC0546642001F064
:1002900000FA01208849C1F88401284670BD2DE983
:1002A000F04180460F4615461E46002080490860F2
:1002B000642001F0EEF9B8F1000F1ED047F04001C4
:1002C0007C4801F003FC642001F0E3F9681EC1B230
:1002D000784801F0FBFB642001F0DBF9002409E021
:1002E00016F8011B734801F0F1FB642001F0D1F90D
:1002F000601CC4B2AC42F3DB1EE047F020016D4845
:1003000001F0E4FB642001F0C4F9681EC1B2694841
:1003100001F0DCFB642001F0BCF900240AE00021BC
:10032000644801F0D3FB06F8010B642001F0B1F939
:10033000601CC4B2AC42F2DB01205D490860BDE83C
:10034000F0812DE9F04105460C46164600270020B5
:1003500057490860012001F09CF92DB144F040019B
:10036000544801F0B3FB04E044F02001514801F08F
:10037000ADFB00214F4801F0A9FB31464D4801F08B
:10038000A5FB0746012001F084F9012048490860D7
:100390003846BDE8F08108B50121042000F020FCBA
:1003A0000E20ADF8000003208DF8020010208DF81B
:1003B00003006946414800F057F91020ADF80000ED
:1003C00048208DF8030069463C4800F04DF908BD0F
:1003D00010B5FFF7E0FF01203549086000203649DD
:1003E000C1F88C013249091D08604FF47A7001F0A0
:1003F00074F901203049C1F88C01642001F06DF9D5
:100400001120FFF735FF642001F067F90620FFF7A0
:100410002FFF4FF47A7001F060F91120FFF728FFE9
:10042000642001F05AF900BF002211461046FFF780
:1004300088FF04464FF47A7001F04FF920480068B5
:10044000C0432049C1F8B4011F480078A042EBD155
:100450001D4B1A2200210120FFF721FF0A2001F085
:100460003CF91020FFF704FF0A2001F036F90820BC
:10047000FFF7FEFE0A2001F030F910BD70B5054609
:1004800000BF0B48743800680028FAD1084908609A
:10049000002407E00021074801F018FB05F8010BD4
:1004A000601CC4B21B2CF5DB01200149086070BD43
:1004B0008401214200300140000021420008014037
:1004C000B4012242000022420000002031490143D1
:1004D000314A1160704770B5002100230F22C478A3
:1004E00004B32D4C246804F4E064C4F5E064210AEC
:1004F000C1F10403CA40447804FA03F1847814403B
:1005000021430901254C0678A155047804F01F0504
:100510000124AC4005786D11AD0005F1E025C5F86A
:10052000004109E0047804F01F050124AC401C4D93
:100530000678761145F8264070BD1A4A0A400243F3
:10054000154B1B1F1A60704739B1134A121D1268F0
:100550000243114B1B1D1A6006E00F4A121D126860
:1005600082430D4B1B1D1A607047042808D14FF0C1
:10057000E021096941F004014FF0E022116107E038
:100580004FF0E021096921F004014FF0E0221161F0
:10059000704700000000FA050CED00E000E400E008
:1005A00080E100E080FFFF1F10B50446CC48844284
:1005B00008D10121042000F02DFB0021042000F0CF
:1005C00029FB46E0C748844208D10121082000F0F9
:1005D00021FB0021082000F01DFB3AE0C2488442C4
:1005E00008D10121102000F015FB0021102000F09F
:1005F00011FB2EE0BD48844208D10121202000F0EB
:1006000009FB0021202000F005FB22E0B8488442CD
:1006100008D10121402000F0FDFA0021402000F027
:10062000F9FA16E0B348844208D10121802000F095
:10063000F1FA0021802000F0EDFA0AE0AE48844291
:1006400007D10121801500F0E5FA0021A01500F086
:10065000E1FA10BD10B50121084600F0DBFA0021D7
:10066000012000F0D7FA10BD2DE9F0410246002527
:100670000026002000230024002791F803C00CF07E
:100680000F0591F803C00CF0100CBCF1000F03D063
:1006900091F802C04CEA050591F800C0BCF1000FCA
:1006A00031D0146800202BE04FF0010C0CFA00F35D
:1006B000B1F800C00CEA03069E4220D183004FF03F
:1006C0000F0C0CFA03F7BC4305FA03FC4CEA0404D4
:1006D00091F803C0BCF1280F06D14FF0010C0CFAC1
:1006E00000FCC2F814C00AE091F803C0BCF1480F46
:1006F00005D14FF0010C0CFA00FCC2F810C0401CF0
:100700000828D1D31460B1F800C0BCF1FF0F34DD6C
:10071000546800202EE000F1080C4FF0010808FAA0
:100720000CF3B1F800C00CEA03069E4221D183000D
:100730004FF00F0C0CFA03F7BC4305FA03FC4CEA2C
:10074000040491F803C0BCF1280F05D100F1080C96
:1007500008FA0CF8C2F8148091F803C0BCF1480FF5
:1007600007D100F1080C4FF0010808FA0CF8C2F8A4
:100770001080401C0828CED35460BDE8F0814FF6AD
:10078000FF710180022181700421C170704702460F
:10079000002093680B400BB1012000E0002070475F
:1007A0000146886880B2704702460020D3680B403B
:1007B0000BB1012000E0002070470146C86880B2FC
:1007C000704701617047416170470AB1016100E003
:1007D00041617047C16070474FF480320A438261C3
:1007E0008161826182698269704702460020434BC1
:1007F00018684FF68073184040EA021008433F4BD8
:10080000186070473E49C8617047F0B50A4600233A
:1008100000240021002500F00046B6F1004F02D16F
:10082000364EF16901E0354E7168C0F3034583B27D
:1008300000F44016B6F5401F08D121F070612F4E2C
:10084000766826F070662D4F7E6012E000F4801608
:10085000B6F5801F06D1032606FA05F4A14341F040
:10086000706106E0460D360103FA06F6B14341F029
:10087000706122B1460D360103FA06F6314300F0ED
:100880000046B6F1004F02D11C4EF16101E01B4E53
:100890007160F0BD30B500228B071C0F0F2303FAE7
:1008A00004F2164B08338C1053F824309343134C46
:1008B00008348D1044F8253023468C1053F824302A
:1008C0008C07240F00FA04F423430C4C08348D10D9
:1008D00044F8253030BD0A49DC310860704700001B
:1008E00000080140000C01400010014000140140CC
:1008F00000180140001C01400020014000000140A0
:1009000000002042DF48006840F00100DD49086037
:1009100008464068DC490840DA49486008460068F3
:10092000DA490840D74908600846006820F480206A
:1009300008600846406820F4FE0048604FF41F003D
:1009400088607047CF49096821F48031CD4A116031
:100950001146096821F480211160B0F5803F03D071
:10096000B0F5802F0ED106E0C649096841F4803108
:10097000C44A116007E0C349096841F4A021C14A93
:10098000116000E000BF00BF704710B501460022B3
:10099000002300204A11012A02D1BA4C236806E044
:1009A000022A02D1B74C236A01E0B64C636A01F017
:1009B0001F02012494401C400CB1012000E00020E3
:1009C00010BD38B5002000900024002500BF312064
:1009D000FFF7DBFF05460098401C00900098B0F53B
:1009E000A06F01D0002DF2D03120FFF7CEFF08B16B
:1009F000012400E00024204638BD01460020A14A21
:100A0000106820F0F80040EAC10010607047A0496B
:100A100008607047024600209A4B586820F47C100A
:100A200042EA01031843974B58607047984908669B
:100A3000704701460020934A506820F003000843A5
:100A4000506070478F48406800F00C0070470146C6
:100A500000208C4A506820F0F00008435060704736
:100A600001460020874A506820F4E0600843506047
:100A7000704701460020834A506820F4605040EAE5
:100A8000C1005060704729B17E4A527A02437D4BC3
:100A90005A7204E07B4A527A82437A4B5A72704708
:100AA0007B49D8310860704701460020754A50687C
:100AB00020F440400843506070470021714A2032C2
:100AC0001170704A82F82010012802D004280AD13F
:100AD00004E001216B4A2032117005E00521694ACA
:100AE0002032117000E000BF00BF70476949086004
:100AF00070476449096A0143624A11627047654957
:100B000044390860704730B50021002200240023DA
:100B10005C4D6D6805F00C0121B1042905D0082950
:100B200023D105E05C4D056022E05B4D05601FE0D0
:100B3000544D6D6805F47012524D6D6805F48034A3
:100B4000022505EB92421CB9544D554305600BE05C
:100B50004C4D6D6805F400351DB1504D5543056091
:100B600002E04D4D5543056002E04B4D056000BF6E
:100B700000BF444D6D6805F0F0010909484D6B5CFC
:100B80000568DD4045603F4D6D6805F4E061090A88
:100B9000434D6B5C4568DD4085603A4D6D6805F4FA
:100BA0006051C90A3E4D6B5C4568DD40C560354DFE
:100BB0006D6805F44041890B3A4D6B5CC568B5FB27
:100BC000F3F5056130BD29B12E4A526902432D4B20
:100BD0005A6104E02B4A526982432A4B5A6170479A
:100BE00029B1284A92690243264B9A6104E0254ABA
:100BF00092698243234B9A61704729B1214AD26995
:100C00000243204BDA6104E01E4AD26982431D4B45
:100C1000DA61704729B11B4AD2680243194BDA6086
:100C200004E0184AD2688243164BDA60704729B153
:100C3000144A12690243134B1A6104E0114A126903
:100C40008243104B1A61704712494039086070475F
:100C50000F49C86470470B49C87170470948406A1A
:100C600040F0807007494862704701460020054AFD
:100C700092680A400AB1012000E000207047014953
:100C800088727047001002400000FFF8FFFFF6FE78
:100C9000000042428004424200127A0000093D00F6
:100CA0001A0000202A00002010B50446BE488442E5
:100CB00008D101218014FFF7ADFF0021A014FFF738
:100CC000A9FF16E0B948844208D101210014FFF7BA
:100CD000AEFF00212014FFF7AAFF0AE0B4488442C7
:100CE00007D10121C013FFF7A2FF0021E013FFF796
:100CF0009EFF10BD10B50022028802F441520B88FD
:100D00004C8823438C882343CC8823430C8923437A
:100D10004C8923438C892343CC8923431A43028083
:100D2000838B4FF2FF74234083830B8A038210BDB1
:100D30002DE9F04F85B005460C464FF0000902271B
:100D40004FF000084FF0010B0026B246A88B4FF27F
:100D500040010840A88302202884B5F81C90A068B0
:100D6000022801D100BF38E0A08810B94FF0010B74
:100D700001E04FF0020B8D48854200D100E000BF3A
:100D80006846FFF7C0FEDDF800A0E088B0F5007F00
:100D90000AD14FEA1A2000EB80004000A168B0FBA6
:100DA000F1F0401D86B20BE04FEA4B10BAFBF0F0B9
:100DB00000EB80004000A168B0FBF1F0401D86B25E
:100DC0000A20B6FBF0F606F00108A6EB0800C0F317
:100DD0004F074FF6FF7000EA0828022F01DBFF2FB4
:100DE00002DD02274FF00008E08840EA080038439F
:100DF0002884A088A1890843618808432188084382
:100E000040F4006040EA0909A5F81C9005B0BDE86F
:100E1000F08F0021018041808180C180018141816A
:100E20008181C181072101827047002101804180B9
:100E30008180C1800221816000218181704721B1C0
:100E4000028842F04002028004E002884FF6BF733D
:100E50001A400280704721B1828B42F48062828303
:100E600004E0828B4FF6FF331A408283704730B51F
:100E7000002400230C110125A540ABB21AB18588CE
:100E80001D43858002E085889D43858030BD1AB171
:100E900083880B43838002E083888B438380704781
:100EA000818170470146888970474FF6FF62914201
:100EB00004D0028842F48072028004E002884FF677
:100EC000FF631A400280704721B1828842F0040219
:100ED000828004E082884FF6FB731A40828070475C
:100EE00002884FF2FF731A40028002880A43028090
:100EF0007047018841F480510180704721B1028818
:100F000042F40052028004E002884DF6FF731A405A
:100F10000280704702460020012901D0108B00E0BA
:100F2000908A70470146088A7047B1F5804F04D116
:100F3000028842F48042028004E002884BF6FF738C
:100F40001A40028070470246002013890B400BB103
:100F5000012000E000207047CA4302817047F0B5CD
:100F60000246002000240023002501F00F0701267F
:100F7000BE40B4B20B1101269E40B3B2968806EA79
:100F800003051689264016B10DB1012000E00020AE
:100F9000F0BD10B5002201F00F040123A3409AB266
:100FA000D343038110BD00000030014000380040F1
:100FB000003C004010B50446FB48844209D10121A1
:100FC0008803FFF727FE00214FF48040FFF722FE41
:100FD00032E0F648844209D101214804FFF727FE98
:100FE00000214FF40030FFF722FE25E0F048844254
:100FF00009D101218804FFF71AFE00214FF4802057
:10100000FFF715FE18E0EB48844209D10121C8041E
:10101000FFF70DFE00214FF40020FFF708FE0BE064
:10102000E548844208D101210805FFF700FE0021B0
:101030004FF48010FFF7FBFD10BD2DE9F04786B09F
:1010400005460E460024A24600BFA1460027B089EF
:1010500000B100BF2F462C8A4CF6FF700440F08888
:1010600004432C82AC894EF6F3100440B0883189D9
:101070000843718908430443AC81AC8A4FF6FF40B2
:101080000440B0890443AC8201A8FFF73CFDC64888
:10109000874202D1DDF810A001E0DDF80CA0A8899C
:1010A00000F4004040B10AEBCA0000EB0A103168BE
:1010B0004900B0FBF1F807E00AEBCA0000EB0A10A8
:1010C00031688900B0FBF1F86420B8FBF0F004014E
:1010D0002009642101FB1089A88900F4004040B177
:1010E000322000EBC900B0FBF1F000F00700044330
:1010F00008E0322000EB09106421B0FBF1F000F0B1
:101100000F0004432C8106B0BDE8F0874FF4165160
:10111000016000218180C18001810C214181002179
:101120008181704710B502460020108A4FF2FF03FC
:1011300018400B884C8823438C882343CC88234356
:101140001843108210BD0021018041808180C18040
:10115000704721B1828942F40052828104E0828981
:101160004DF6FF731A4082817047F0B503460024A4
:1011700000260025002040F66A17B94200D100BFC2
:101180001846C1F3421401F01F06012707FA06F5BD
:10119000012C01D10C3004E0022C01D1103000E010
:1011A00014301AB107682F43076002E00768AF43A5
:1011B0000760F0BD1AB1838A0B43838202E0838A01
:1011C0008B4383827047028A4FF6F0731A40028283
:1011D000028A0A430282704782894FF2FF731A40E3
:1011E000828182890A438281704721B1828942F0DB
:1011F0000202828104E082894FF6FD731A408281E7
:101200007047028A4FF6DF731A400282028A0A434D
:101210000282704721B1028A42F48042028204E0D5
:10122000028A4BF6FF731A4002827047C1F308022C
:101230008280704701468888C0F308007047818922
:1012400041F0010181817047028BD2B20283028B8F
:1012500042EA012202837047028B02F47F4202833A
:10126000028B0A430283704721B1828A42F0200236
:10127000828204E0828A4FF6DF731A4082827047CE
:1012800021B1828A42F01002828204E0828A4FF603
:10129000EF731A408282704721B1828A42F00802BD
:1012A000828204E0828A4FF6F7731A408282704786
:1012B00021B1828942F40042828103E08289C2F333
:1012C0000E028281704721B1828A42F400628282DA
:1012D00004E0828A4FF2FF731A4082827047828A4A
:1012E0004FF6FB731A408282828A0A4382827047D9
:1012F00021B1828A42F00202828204E0828A4FF6A1
:10130000FD731A408282704702460020B1F5007FCB
:1013100000D100BF13880B400BB1012000E000207A
:10132000704701F40072B2F5007F00D100BFCA43DC
:101330000280704770B5024600240023002500207B
:1013400040F66A16B14200D100BFC1F3421501F068
:101350001F03012606FA03F3012D02D196893340BB
:1013600006E0022D02D1168A334001E0968A33400E
:101370000C12012606FA04F41688344013B10CB19D
:10138000012000E0002070BD10B50022002340F6CF
:101390006A14A14200D100BF0A1201249440A3B2F2
:1013A000DC43048010BD00000038014000440040D0
:1013B00000480040004C004000500040F8B5064690
:1013C0000C461546052E77D2DFE806F0032542537A
:1013D000640001210420FFF703FCA0B2ADF8000077
:1013E000B4F5005F05D0B4F5804F02D0B4F5004FDE
:1013F00007D101210846FFF7F3FB01216748FFF7FA
:1014000004FA8DF8035003208DF802006946644801
:10141000FFF72AF952E001210820FFF7E1FBA0B213
:10142000ADF80000102C01D0082C07D1012108468E
:10143000FFF7D6FB01215948FFF7E7F98DF8035074
:1014400003208DF8020069465648FFF70DF935E094
:1014500001211020FFF7C4FBA0B2ADF800008DF809
:10146000035003208DF8020069464F48FFF7FCF84F
:1014700024E001212020FFF7B3FBA0B2ADF800006B
:101480008DF8035003208DF8020069464748FFF7A6
:10149000EBF813E001214020FFF7A2FBA0B2ADF86A
:1014A00000008DF8035003208DF802006946404883
:1014B000FFF7DAF802E0FFE70020F8BD00BF0120E7
:1014C000FBE705282FD2DFE800F0030C151C2500F0
:1014D0001AB1334B1033196002E0314B14331960E9
:1014E00022E01AB12F4B1033196002E02D4B143358
:1014F000196019E012B12C4B196101E02A4B5961B6
:1015000012E01AB1294B1033196002E0274B143353
:10151000196009E01AB1264B1033196002E0244B20
:101520001433196000E000BF00BF7047024600207E
:10153000052A30D2DFE802F0030C151D2600184BF7
:1015400008331B680B400BB1012000E0002023E0B2
:10155000144B08331B680B400BB1012000E0002046
:101560001AE0114B9B680B400BB1012000E00020FA
:1015700012E00E4B08331B680B400BB1012000E05A
:10158000002009E00A4B08331B680B400BB1012017
:1015900000E0002000E000BF00BF70470002300004
:1015A00000080140000C01400010014000140140FF
:1015B0000018014010B504464FF0E020006940F0EB
:1015C00004004FF0E02108616FF00400FEF7CDFF4A
:1015D000544800685449B0FBF1F05449087008467B
:1015E000007800EB4001C1EBC0104FF6FF7101EA3B
:1015F000C0004F4908804D48007860434FF0E0211B
:10160000486110BD012808D14FF0E021096941F07F
:1016100002014FF0E022116107E04FF0E02109697B
:1016200021F002014FF0E02211617047012808D13A
:101630004FF0E021096941F001014FF0E022116112
:1016400007E04FF0E021096921F001014FF0E022AD
:101650001161704710B56FF00400FEF786FF314846
:1016600000683149B0FBF1F0304908700846007855
:1016700000EB4001C1EBC0104FF6FF7101EAC00062
:101680002B4908800120FFF7D1FF0020FFF7BAFFA8
:1016900010BD0146254A12784A434FF0E0235A61B3
:1016A00000229A611A46126942F001021A6100BFD3
:1016B0004FF0E022106900F001021AB100F480320C
:1016C000002AF5D04FF0E022126922F001024FF01B
:1016D000E0231A6100229A61704710B50146144B4D
:1016E0001B884FF0E024636123461B6943F001032C
:1016F000236100220FE000234FF0E024A36100BF2C
:101700004FF0E023186900F001031BB100F48033AF
:10171000002BF5D0521C8A42EDD310BD4FF0E020D3
:10172000806970473400002000127A002E000020EB
:101730003000002070B504460D46E1B2DC48FFF7EA
:1017400075FD00BF4021DA48FFF7DEFD0028F9D023
:10175000204670BD00BFD648008800F02000002859
:10176000F9D0D348001D0088C0F3080070472DE968
:10177000F04186B080460C4615461E460C9FB8F1D7
:10178000010F06D0B8F1020F4ED0B8F1030F7CD193
:1017900094E0012144F20400FFF722FAC448FFF765
:1017A00009FC4FF40070ADF8140003208DF816000A
:1017B00018208DF8170005A9BE48FEF755FF4FF415
:1017C0008060ADF8140004208DF8170005A9B94811
:1017D000FEF74AFF25208DF80000E8B28DF80100E1
:1017E000F0B28DF802008DF803706846FEF773FEC4
:1017F00001940020ADF80800ADF80A00ADF80C0027
:10180000ADF810000C20ADF80E0001A9A848FFF7B4
:1018100014FC3A4640F22551A548FFF7A6FC0121E9
:10182000A348FFF796FC00BF0121A348FFF7D8F9B2
:10183000A248FFF7BFFB0420ADF8140003208DF889
:10184000160018208DF8170005A99A48FEF70CFF1E
:101850000820ADF8140004208DF8170005A995485C
:10186000FEF702FF26208DF80000E8B28DF8010097
:10187000F0B28DF802008DF803706846FEF72BFE7B
:1018800001940020ADF8080000E065E0ADF80A0022
:10189000ADF80C00ADF810000C20ADF80E0001A959
:1018A0008648FFF7CAFB3A4640F225518348FFF7C6
:1018B0005CFC01218148FFF74CFC51E0012108202C
:1018C000FFF78EF901218804FFF797F97C48FFF7AD
:1018D00071FB4FF48060ADF8140003208DF8160002
:1018E00018208DF8170005A97648FEF7BDFE4FF4C5
:1018F0000060ADF8140048208DF8170005A9714864
:10190000FEF7B2FE27208DF80000E8B28DF8010046
:10191000F0B28DF802008DF803706846FEF7DBFD2B
:1019200001940020ADF80800ADF80A00ADF80C00F5
:10193000ADF810000C20ADF80E0001A96048FFF7CB
:101940007CFB3A4640F225515D48FFF70EFC012131
:101950005B48FFF7FEFB03E0002006B0BDE8F08126
:1019600000BF0120F9E70246012A04D0022A09D06B
:10197000032A15D10DE04E48001D0088C0F3080071
:1019800008800FE04D48001D0088C0F30800088063
:1019900008E04B48001D0088C0F30800088001E003
:1019A0000020704700BF0120FBE770B505460C46DC
:1019B000012D04D0022D0FD0032D27D119E0C4F33F
:1019C00008003B49091D088000BF40213848FFF747
:1019D0009BFC0028F9D019E0C4F308003749091D21
:1019E000088000BF40213548FFF78EFC0028F9D061
:1019F0000CE0C4F308003249091D088000BF4021F3
:101A00002F48FFF781FC0028F9D000BF00BF70BD50
:101A100011B12D4A42F82010704708B540F2255107
:101A20002348FFF787FC58B169460120FFF79BFF69
:101A30002548406820B124484168BDF80000884727
:101A400008BD08B540F225511C48FFF773FC58B19A
:101A500069460220FFF787FF1B48806820B11A48BB
:101A60008168BDF80000884708BD08B540F22551DF
:101A70001348FFF75FFC58B169460320FFF773FF77
:101A80001148C06820B11048C168BDF800008847FF
:101A900008BD70B505460C4606E014F8016B3146EA
:101AA0002846FFF782FF00BF20780028F5D170BDDF
:101AB00000380140000801400400020000440040DA
:101AC00000480040000C01409800002070B5054619
:101AD0000E46002405E0601CC4B2C82C01DD0020C5
:101AE00070BD02212846FFF72EFA0028F3D03146B8
:101AF0002846FFF7D5F9002405E0601CC4B2C82CC5
:101B000001DD0020ECE701212846FFF71CFA002840
:101B1000F3D02846FFF7C6F9C0B2E1E7F0B587B0C9
:101B200004460D4616461F460020ADF804004FF44B
:101B30008270ADF806000020ADF80800B8B2ADF82C
:101B40000E00B0B2ADF810000020ADF81200072072
:101B5000ADF81400012D06D0022D0BD0032D10D0AE
:101B6000042D1BD113E00220ADF80A000020ADF8CF
:101B70000C0014E00220ADF80A000120ADF80C00C2
:101B80000DE00020ADF80A00ADF80C0007E00020E1
:101B9000ADF80A000120ADF80C0000E000BF00BF66
:101BA000012C04D0022C30D0032C7CD15CE001212C
:101BB0000420FFF715F801210803FFF711F8E020D2
:101BC000ADF8180018208DF81B0003208DF81A00BE
:101BD00006A94C48FEF748FD4FF40250ADF8180036
:101BE00010208DF81B0006A94748FEF73DFD42F284
:101BF000B8014548FEF7E5FD01A94448FFF77AF82A
:101C000001214248FFF71BF969E001210820FEF796
:101C1000E7FF01218803FEF7F0FF4FF46040ADF8C5
:101C2000180018208DF81B0003208DF81A0006A953
:101C30003548FEF719FD41F21000ADF818001020EC
:101C40008DF81B0006A93048FEF70EFD4FF210017B
:101C50002D48FEF7B6FD01A92D48FFF74BF80121ED
:101C60002B48FFF7ECF83AE001210820FEF7B8FF17
:101C70000121C803FEF7C1FF3820ADF81800182075
:101C80008DF81B0003208DF81A0006A91E48FEF7E8
:101C9000EBFC4FF44040ADF8180010208DF81B000D
:101CA00006A9184800E017E0FEF7DEFC38211648C8
:101CB000FEF787FD4FF440411248FEF782FD01A96F
:101CC0001448FFF717F801211248FFF7B8F8FF2171
:101CD0001048FFF7FBFE02E0002007B0F0BD00BF98
:101CE0000120FAE770B504460D4620884FF6C7710B
:101CF0000840208020882843208001212046FFF7CB
:101D00009EF870BD00080140000C01400030014009
:101D100000380040003C004010B54FF4A060FEF7D2
:101D2000D5FB10BD0648804706480047FEE7FEE7A2
:101D3000FEE7FEE7FEE7FEE7FEE7FEE7FEE7FEE77B
:101D4000271E0008ED0000080CB50020019000904F
:101D50006C48006840F480306A49086000BF6948F8
:101D6000006800F4003000900198401C0190009839
:101D700018B90198B0F5A06FF1D16248006800F47D
:101D8000003010B10120009001E000200090009888
:101D9000012843D15C48006840F010005A490860AF
:101DA0000846006820F0030008600846006840F01C
:101DB000020008605348406852494860084640683D
:101DC00048600846406840F48060486008464068C3
:101DD00020F47C1048600846406840F4E8104860F1
:101DE0000846006840F08070086000BF4548006801
:101DF00000F000700028F9D04248406820F003004D
:101E0000404948600846406840F00200486000BF12
:101E10003C48406800F00C000828F9D10CBD10B512
:101E2000FFF792FF10BD10B53648006840F0010082
:101E300034490860084640683449084031494860E0
:101E400008460068324908402E4908600846006884
:101E500020F4802008600846406820F4FE004860B6
:101E60004FF41F008860FFF7DAFF4FF00060294948
:101E7000086010BD10B5002100200022214B5B68D6
:101E800003F00C0121B1042906D0082928D107E06C
:101E9000214B224C236027E01F4B204C236023E082
:101EA000184B5B6803F47010164B5B6803F48032C8
:101EB000022303EB904022B9194B4343174C236094
:101EC0000DE0104B5B6803F4003323B1144B434324
:101ED000124C236003E0104B4343104C236003E09B
:101EE0000D4B0E4C236000BF00BF064B5B68C3F375
:101EF00003130C4CE15C094B1B68CB40074C23607F
:101F000010BD000000100240002002400000FFF859
:101F1000FFFFF6FE08ED00E000127A00340000201A
:101F200000093D003800002080EA010210B502F0EF
:101F30000043400022D04A001FD0010E01EB126185
:101F4000C0F35600C2F3560240F4000042F400020F
:101F5000A0FB022000047F39140400D0401C50EA8A
:101F6000124001D44000491EC2B20C0604EBD0104E
:101F7000401C4008802A02D003E0002010BD20F061
:101F80000100002900DA0020184310BDC10F80EACB
:101F9000E0700844CA079623002100F022B800F040
:101FA000004220F00040C10DC0F3160040F40000D4
:101FB0007F2901DA00207047962903DCC1F19601E0
:101FC000C84001E096398840002AF4D0404270476A
:101FD0000029A8BF7047401C490008BF20F001003D
:101FE000704710B4B0FA80FC00FA0CF050EA01041B
:101FF00004BF10BC704749B1CCF1200421FA04F4AD
:1020000011FA0CF118BF012121430843A3EB0C0185
:10201000CB1D4FEA00614FEA102042BF002010BCE8
:10202000704700EBC35010440029A4BF10BC704798
:10203000401C490008BF20F0010010BC70470000A0
:10204000064C074D06E0E06840F0010394E8070005
:1020500098471034AC42F6D3FEF74CF884200008C1
:10206000A420000802E008C8121F08C1002AFAD103
:1020700070477047002001E001C1121F002AFBD108
:1020800070470000A4200008000000204800000065
:1020900064200008EC2000084800002060040000D4
:1020A00074200008D28610DC02000000100000003E
:1020B00000000000000000000000F600000000002A
:1020C00000000102030401020304060708090204D8
:1020D000060800000000000000A24A040000000002
:0C20E000000000000102030406070809CC
:04000005080000ED02
:00000001FF
